:100000000C9455010C94B3060C9488060C945D0670
:100010000C9432060C9407060C94DC050C94B10584
:100020000C9486050C9486010C9486010C94860130
:100030000C9486010C9486010C9486010C94860124
:100040000C9486010C949C0E0C9486010C948601F1
:100050000C9486010C9486010C9486010C943C054A
:100060000C9486010C9408070C94DE060C9486010F
:100070000C9486010C9486010C9486010C948601E4
:100080000C946E0E0C9486010C9486010C948601DF
:100090000C9486010C9486010C9486010C948601C4
:1000A0000C9486010C9486010C94400E0C948601ED
:1000B0000C9486010C9486010C9486010C94120E0B
:1000C0000C9486010C9486010C9486010C94860194
:1000D0000C9486010C9486010C9486010C94860184
:1000E0000C948601B701BA01A901AD01B101F1017A
:1000F000BE01C201C801CC01D001D601DA01DE0186
:10010000F101E401E801EC010C94D0010C943513E9
:100110000C94BE010C94B7010C94E4020C941704E7
:100120000C94C8010C949D020C9466020C94F1018D
:100130000C94B1010C9435020C9458020C94D60125
:100140000C941D040C94C2010C94CC010C94E80195
:100150000C9405020C9411040C94DA010C94E40143
:100160000C94EC010C94DE010C94AD010C94BA01DA
:100170000C94FF030C940B040C9444020C9405049F
:100180000C94A9010C940602000020002300260014
:1001900029002C002F00320000010000030106019D
:1001A000090100002100240027002A002D00300052
:1001B000330001010000040107010A0100002200D0
:1001C000250028002B002E00310034000201000021
:1001D000050108010B0105050505070508080808C4
:1001E000020202020A0A08080404040401010101CF
:1001F00001010101030303030303030304070707CA
:100200000C0C0C0C0C0C0C0C02020202060606066E
:10021000060606060B0B0B0B0B0B0B0B010210203B
:10022000200808102040102040800201020108042C
:1002300002010102040810204080804020100804C0
:100240000201800402018040201008040201080419
:10025000020101020408102040800102040810205D
:10026000408000000A0B02090C0D0E080703040170
:10027000000000000000000000000000000000007E
:10028000000000000000000000000000000012114B
:10029000100000000000000000000000000000004E
:1002A0000000000000000000351311241FBECFEF36
:1002B000D1E2DEBFCDBF00E00CBF24E0AAE4B2E093
:1002C00001C01D92AF34B207E1F712E0A0E0B2E046
:1002D000E4E8FDE200E00BBF02C007900D92AA34F3
:1002E000B107D9F711E0C5E5D1E000E006C02197DC
:1002F0000109802FFE010E940D14C435D10780E052
:100300000807A9F70E94CA0E0C94C0160C940000AE
:10031000362F90E0FC01EE59FD4F4491FC01E45E64
:10032000FD4F2491FC01EA52FE4F9491992309F468
:100330006BC0442309F455C050E0FA013197E23113
:10034000F10508F04EC08827EE58FF4F8F4F0C94F0
:100350000D14809180008F7707C0809180008F7D81
:1003600003C080918000877F809380003AC084B56D
:100370008F7702C084B58F7D84BD33C08091B0007B
:100380008F7703C08091B0008F7D8093B00029C02B
:10039000809190008F7707C0809190008F7D03C07F
:1003A00080919000877F809390001BC08091A00077
:1003B0008F7707C08091A0008F7D03C08091A0003F
:1003C000877F8093A0000DC0809120018F7707C0A8
:1003D000809120018F7D03C080912001877F8093D1
:1003E0002001E92FF0E0EE0FFF1FE454FE4FA5912E
:1003F000B4918FB7F894EC91311103C020952E235E
:1004000001C02E2B2C938FBF08950895CF92DF92B9
:10041000EF92FF920F931F93CF93DF936C017A01BA
:100420008B01C0E0D0E0CE15DF0589F0D8016D91D9
:100430008D01D601ED91FC910190F081E02DC60176
:100440001995892B11F47E0102C02196ECCFC701CA
:10045000DF91CF911F910F91FF90EF90DF90CF90A0
:100460000895089580E090E00895FC01538D448D37
:10047000252F30E0842F90E0821B930B541710F04F
:10048000CF96089501970895FC01918D828D98175C
:1004900061F0828DDF01A80FB11D5D968C91928D68
:1004A0009F5F9F73928F90E008958FEF9FEF089565
:1004B000FC01918D828D981731F0828DE80FF11D2E
:1004C000858D90E008958FEF9FEF0895FC01918D49
:1004D000228D892F90E0805C9F4F821B91098F7342
:1004E0009927089581E792E00E94660221E0892B16
:1004F00009F420E0822F0895FC01848DDF01A80F0C
:10050000B11DA35ABF4F2C91848D90E001968F733B
:100510009927848FA689B7892C93A089B1898C915A
:1005200080648C93938D848D981306C00288F38920
:10053000E02D80818F7D80830895EF92FF920F934D
:100540001F93CF93DF93EC0181E0888F9B8D8C8D7F
:10055000981305C0E889F989808185FD24C0F62EAD
:100560000B8D10E00F5F1F4F0F731127E02E8C8D46
:10057000E8120CC00FB607FCFACFE889F989808130
:1005800085FFF5CFCE010E947C02F1CF8B8DFE015D
:10059000E80FF11DE35AFF4FF0820B8FEA89FB89C8
:1005A0008081806207C0EE89FF896083E889F989CC
:1005B00080818064808381E090E0DF91CF911F9102
:1005C0000F91FF90EF900895CF93DF93EC01888D0A
:1005D0008823C9F0EA89FB89808185FD05C0A88947
:1005E000B9898C9186FD0FC00FB607FCF5CF8081CD
:1005F00085FFF2CFA889B9898C9185FFEDCFCE0117
:100600000E947C02E7CFDF91CF91089580E090E0D7
:10061000892B21F00E947202811125C080E090E0B8
:10062000892B41F080E090E0892B21F00E940000AE
:1006300081111CC080E090E0892B41F080E090E0C7
:10064000892B21F00E940000811113C080E090E00E
:10065000892BA1F080E090E0892B81F00E940000BE
:1006600081110AC008950E940000D8CF0E940000A6
:10067000E1CF0E940000EACF0C940000089582317F
:1006800009F466C0B8F4823069F1833009F073C0B0
:1006900070934D0260934C0287E194E090930302C3
:1006A0008093020280916A00837F846080936A0055
:1006B000ED9A5FC0843141F1C8F1853109F05BC02A
:1006C00070934F0260934E0281E194E09093050293
:1006D00080930402809169008C7F8160809369001F
:1006E000E89A47C070934B0260934A028DE194E010
:1006F000909301028093000280916A008C7F816058
:1007000080936A00EC9A35C0709351026093500256
:100710008BE094E090930702809306028091690039
:10072000837F846080936900E99A23C070935302A9
:100730006093520285E094E090930902809308024E
:10074000809169008F7C806180936900EA9A11C072
:1007500070935502609354028FEF93E090930B02D5
:1007600080930A02809169008F738064809369008E
:10077000EB9A81E0089580E00895DC01ED91FD9110
:100780008081ED91FD919081ED91FD916C9163706F
:100790008E2309F064609F2309F06860EAEDF3E0BE
:1007A000E60FF11D659565956D936D917D918D9128
:1007B0009D91099423C01AC012C016C010C01EC05B
:1007C00009C014C013C006C019C009C00DC007C0BD
:1007D0000DC014C062507040804090400BC061500A
:1007E00070408040904006C06E5F01C06F5F7F4FD9
:1007F0008F4F9F4F9E938E937E936E93089580911B
:100800005402909155020C94BD0380915202909134
:1008100053020C94BD0380915002909151020C94AC
:10082000BD0380914E0290914F020C94BD038091C4
:100830004C0290914D020C94BD0380914A0290911C
:100840004B020C94BD03CF93DF93EC018B85823078
:1008500028F4F894CE010E94BD0301C0F8946F8182
:10086000788589859A857894DF91CF9108950E9443
:100870005816CF92DF92EF92FF920F931F93CF9370
:10088000DF936C018B017A01EC01C759DD4F888140
:1008900087FF04C0FB011182108224C08CE08C9D74
:1008A00090018D9D300D11248881A901480F511DA3
:1008B00087FD5A9580919E0390E04817590794F45C
:1008C0008881A901480F511D87FD5A95CA01FA0177
:1008D000EE0FFF1F8E0F9F1FFC01E25FFC4F808118
:1008E00086FD19C088818F5F88838CE08C9D900184
:1008F0008D9D300D11248881A901480F511D87FD60
:100900005A9580919E0390E048175907BCF488815E
:100910008C3044F113C08881280F311D87FD3A9532
:10092000F901EE0FFF1F2E0F3F1FF901E25FFC4F91
:10093000808160E08F730E948801D4CFF8018081AC
:100940009181049680349C4918F480E49CE904C0A9
:10095000F801808191810496F701918380838FEF64
:10096000888345C0F801408151818881B901680FB1
:10097000711D87FD7A95CB01FB01EE0FFF1F8E0FD6
:100980009F1FFC01E25FFC4F81819281840F951FC4
:10099000F701918380838881A901480F511D87FD4C
:1009A0005A95CA01FA01EE0FFF1F8E0F9F1FFC011F
:1009B000E25FFC4F808186FF1AC08881280F311DBD
:1009C00087FD3A95F901EE0FFF1F2E0F3F1FF9012A
:1009D000E25FFC4F808161E08F73DF91CF911F91C7
:1009E0000F91FF90EF90DF90CF900C948801DF91F2
:1009F000CF911F910F91FF90EF90DF90CF900895CE
:100A0000CF93DF9390E0FC01E45EFD4F2491FC0165
:100A1000EA52FE4F8491882361F190E0880F991F7C
:100A2000FC01EE55FE4FC591D491FC01E454FE4FFC
:100A3000A591B491611109C09FB7F8948881209560
:100A400082238883EC912E230BC0623061F49FB720
:100A5000F8943881822F809583238883EC912E2B04
:100A60002C939FBF06C08FB7F894E8812E2B288364
:100A70008FBFDF91CF9108951F920F920FB60F9203
:100A800011242F933F938F939F93AF93BF938091A4
:100A90006D0290916E02A0916F02B0917002309140
:100AA000680223E0230F2D3720F40196A11DB11D0C
:100AB00005C026E8230F0296A11DB11D20936802F0
:100AC00080936D0290936E02A0936F02B0937002B8
:100AD0008091640290916502A0916602B0916702D4
:100AE0000196A11DB11D8093640290936502A093AD
:100AF0006602B0936702BF91AF919F918F913F9132
:100B00002F910F900FBE0F901F9018951F920F926C
:100B10000FB60F9211240BB60F922F933F934F9362
:100B20005F936F937F938F939F93AF93BF93EF9355
:100B3000FF93E0910E02F0910F021995FF91EF9152
:100B4000BF91AF919F918F917F916F915F914F91E5
:100B50003F912F910F900BBE0F900FBE0F901F90E3
:100B600018951F920F920FB60F9211240BB60F9289
:100B70002F933F934F935F936F937F938F939F93A5
:100B8000AF93BF93EF93FF93E0910C02F0910D02AE
:100B90001995FF91EF91BF91AF919F918F917F91A7
:100BA0006F915F914F913F912F910F900BBE0F90DE
:100BB0000FBE0F901F9018951F920F920FB60F92B5
:100BC00011240BB60F922F933F934F935F936F9324
:100BD0007F938F939F93AF93BF93EF93FF93E09196
:100BE0000202F09103021995FF91EF91BF91AF912D
:100BF0009F918F917F916F915F914F913F912F9135
:100C00000F900BBE0F900FBE0F901F9018951F9264
:100C10000F920FB60F9211240BB60F922F933F93A2
:100C20004F935F936F937F938F939F93AF93BF93F4
:100C3000EF93FF93E0910002F09101021995FF916B
:100C4000EF91BF91AF919F918F917F916F915F9144
:100C50004F913F912F910F900BBE0F900FBE0F90B1
:100C60001F9018951F920F920FB60F9211240BB67A
:100C70000F922F933F934F935F936F937F938F9335
:100C80009F93AF93BF93EF93FF93E0910A02F0918C
:100C90000B021995FF91EF91BF91AF919F918F91A9
:100CA0007F916F915F914F913F912F910F900BBE6C
:100CB0000F900FBE0F901F9018951F920F920FB6B6
:100CC0000F9211240BB60F922F933F934F935F9384
:100CD0006F937F938F939F93AF93BF93EF93FF9304
:100CE000E0910802F09109021995FF91EF91BF91EF
:100CF000AF919F918F917F916F915F914F913F91B4
:100D00002F910F900BBE0F900FBE0F901F90189554
:100D10001F920F920FB60F9211240BB60F922F93C2
:100D20003F934F935F936F937F938F939F93AF9373
:100D3000BF93EF93FF93E0910602F091070219959C
:100D4000FF91EF91BF91AF919F918F917F916F91A3
:100D50005F914F913F912F910F900BBE0F900FBE5F
:100D60000F901F9018951F920F920FB60F9211249B
:100D70000BB60F922F933F934F935F936F937F9395
:100D80008F939F93AF93BF93EF93FF93E0910402F0
:100D9000F09105021995FF91EF91BF91AF919F914D
:100DA0008F917F916F915F914F913F912F910F9014
:100DB0000BBE0F900FBE0F901F9018951F920F92B1
:100DC0000FB60F9211240BB60F922F933F934F93B0
:100DD0005F936F937F938F939F93AF93BF93EF93A3
:100DE000FF9381E792E00E947C02FF91EF91BF9117
:100DF000AF919F918F917F916F915F914F913F91B3
:100E00002F910F900BBE0F900FBE0F901F90189553
:100E10001F920F920FB60F9211240BB60F922F93C1
:100E20008F939F93EF93FF93E0918102F091820261
:100E30008081E0918702F091880282FD12C090814A
:100E400080918A028F5F8F7320918B02821751F0FD
:100E5000E0918A02F0E0EF58FD4F958F80938A026F
:100E600001C08081FF91EF919F918F912F910F9001
:100E70000BBE0F900FBE0F901F9018950F931F93EE
:100E8000CF93DF93EC01062F142F62E0802F0E9496
:100E9000000562E0812F0E940005802F90E0FC0198
:100EA000EA52FE4FE491F0E0EE0FFF1FE857FE4FCD
:100EB000A591B491B983A883FC01E45EFD4F8491B0
:100EC0008C83212F30E0F901EA52FE4F9491E92FF3
:100ED000F0E0EE0FFF1FE857FE4F459154915B8302
:100EE0004A83F901E45EFD4FE491ED831F82188689
:100EF00019861A86EBE3FFE13197F1F7EC91E823CD
:100F000081E009F480E0FA0120819D81922309F0BB
:100F100082608E83BE01802F0E943F038B87BE01BB
:100F2000812F0E943F032B8590E0820F911D8B87BC
:100F3000DF91CF911F910F9108952F923F924F9281
:100F40005F926F927F928F929F92AF92BF92CF9259
:100F5000DF92EF92FF920F931F93CF93DF9300D016
:100F60001F92CDB7DEB74C01270138010E8D1F8DC2
:100F700028A039A0DC015F965C934E935E975D9646
:100F80007C936E935C9791963C932E939097DA9610
:100F90001C92FC0112AA13AA14AA15AA80E090E0E0
:100FA000AFE7B3E486AB97ABA0AFB1AF84E690E018
:100FB000A0E0B0E086A797A7A0ABB1AB318E208EA2
:100FC00020E030E0A901C301B2010E94821487FD34
:100FD00083C020E030E0A901C601B5010E9482145F
:100FE00087FD7AC020E030E0A9016A8D7B8D8C8D71
:100FF0009D8D0E94821487FD6FC0D4015B961C9367
:101000000E935A9781E00130110509F080E0F40158
:1010100083AF4082518262827382A482B582C6828B
:10102000D7828A8D9B8DAC8DBD8D80879187A2875D
:10103000B38744865586668677862DEC3CEC4CEC6F
:101040005DE3C601B5010E94E61569837A838B834F
:101050009C83F401608B718B828B938B2DEC3CEC29
:101060004CEC5DE36A8D7B8D8C8D9D8D0E94871489
:101070006B017C01D40154966D937D938D939C9369
:1010800057972A94232841F5A301920160E070E06C
:10109000CB010E941514F4016487758786879787B2
:1010A00029813A814B815C8160E070E0CB010E9434
:1010B0001514D40150966D937D938D939C93539703
:1010C000A701960160E070E0CB010E941514F401C5
:1010D000648B758B868B978B2FB7F89480916D02FC
:1010E00090916E02A0916F02B09170022FBFF40137
:1010F00046A557A560A971A9841B950BA60BB70B34
:1011000082A393A3A4A3B5A30F900F900F900F9069
:10111000DF91CF911F910F91FF90EF90DF90CF90D3
:10112000BF90AF909F908F907F906F905F904F9007
:101130003F902F900895CF92DF92EF92FF92CF933E
:10114000DF93C0914D04D0914E04C031D10534F0ED
:1011500010924E0410924D0481E01FC00E9415149D
:101160006B017C0120E030E0A9010E94E115181616
:1011700024F0F7FAF094F7F8F09420E030E040E43F
:1011800050E4C701B6010E94821487FF05C0219672
:10119000D0934E04C0934D0480E0DF91CF91FF9037
:1011A000EF90DF90CF900895009769F0FC010190D7
:1011B0000020E9F73197AF01481B590BBC0181E7CB
:1011C00092E00C94060280E090E008958F929F9246
:1011D000AF92BF920F931F93CF93DF93CDB7DEB73C
:1011E000A1970FB6F894DEBF0FBECDBF19A2423053
:1011F00008F44AE08E010F5D1F4F842E912CA12C24
:10120000B12CA50194010E948F16E62FB901CA01E5
:1012100001501109EA3014F4E05D01C0E95CD80125
:10122000EC93232B242B252B61F7C8010E94D408B3
:10123000A1960FB6F894DEBF0FBECDBFDF91CF9160
:101240001F910F91BF90AF909F908F9008954F92F4
:101250005F926F927F928F929F92AF92BF92CF9246
:10126000DF92EF92FF926B017C01B42E9B01AC01E7
:101270000E945316882319F08DE392E027C02601BF
:101280003701E89477F82FEF3FEF4FE75FE7C301AF
:10129000B2010E94531681110DC02FEF3FEF4FE7AF
:1012A0005FE7C301B2010E94821418161CF481E4A6
:1012B00092E00CC02FEF3FEF4FE75FE4C701B601AC
:1012C0000E94E115181684F485E492E0FF90EF90F7
:1012D000DF90CF90BF90AF909F908F907F906F9056
:1012E0005F904F900C94D4082FEF3FEF4FE75FECE7
:1012F000C701B6010E94821487FDE6CF20E030E0EE
:10130000A901C701B6010E94821487FF11C0E091B4
:101310007102F09172020190F081E02D6DE281E79F
:1013200092E019954C01F7FAF094F7F8F09402C0A6
:10133000812C912CA12C60E070E080E09FE3AB1445
:1013400041F020E030E040E251E40E948714A39491
:10135000F6CF9B01AC01C701B6010E9416142B0108
:101360003C010E9400156B017C010E942F159B011E
:10137000AC01C301B2010E9415142B013C014AE0EB
:10138000C701B6010E94E6087C01E80CF91CBB20ED
:1013900069F0E0917102F09172020190F081E02D0C
:1013A0006EE281E792E01995E80EF91EDB2CDD2054
:1013B00021F120E030E040E251E4C301B2010E949B
:1013C000E6152B013C010E9400154B01A12CB12C0C
:1013D0004AE0C501B4010E94E608E80EF91EC50105
:1013E000B4010E942F159B01AC01C301B2010E9400
:1013F00015142B013C01DA94DACFC701FF90EF906E
:10140000DF90CF90BF90AF909F908F907F906F9024
:101410005F904F9008952F923F924F925F926F92FC
:101420007F928F929F92AF92BF92CF92DF92EF9274
:10143000FF920F931F93CF93DF9300D01F92CDB7EE
:10144000DEB71C016A017B0148015901DC015A9693
:101450006D907C905B9720E030E0A901C701B60158
:101460000E94821487FD7AC020E030E0A901C50106
:10147000B4010E94821487FD71C081E06A946728DC
:1014800009F080E0F10183AFC082D182E282F38271
:10149000148215821682178280869186A286B38670
:1014A00066A577A580A991A90E942F1520E030E0BC
:1014B0004AE754E40E9487142B013C01F101C486E1
:1014C000D586E686F78620E030E0A9010E94E61581
:1014D00069837A838B839C83D10150966D937D932E
:1014E0008D939C935397A3019201C501B4010E946F
:1014F00087144B015C01F101648B758B868B978B94
:10150000808D918D019751F5A701960160E070E003
:10151000CB010E941514D1011C966D937D938D9380
:101520009C931F9729813A814B815C8160E070E038
:10153000CB010E941514F101608B718B828B938B10
:10154000A501940160E070E0CB010E941514D10167
:1015500054966D937D938D939C9357970F900F9016
:101560000F900F90DF91CF911F910F91FF90EF900F
:10157000DF90CF90BF90AF909F908F907F906F90B3
:101580005F904F903F902F9008958F929F92AF92CF
:10159000BF92CF92DF92EF92FF92CF93DF93EC0155
:1015A0008AAD811130C0EE8DFF8DC080D180E28088
:1015B000F380CEA2DFA2E8A6F9A6EC8DFD8D808196
:1015C0009181A281B3818AA79BA7ACA7BDA78EA852
:1015D0009FA8A8ACB9ACA5019401C701B6010E94AF
:1015E000E115181664F08AA89BA8ACA8BDA8A501AF
:1015F0009401C701B6010E94821487FF04C08EA225
:101600009FA2A8A6B9A681E08AAFDF91CF91FF90F3
:10161000EF90DF90CF90BF90AF909F908F90089504
:101620002F923F924F925F926F927F928F929F92F2
:10163000AF92BF92CF92DF92EF92FF920F931F93E0
:10164000CF93DF93EC016A017B0148015901A901A5
:101650009801C701B6010E94E11587FF4EC0CAAAD2
:10166000DBAAECAAFDAA8EAA9FAAA8AEB9AE8AAD43
:10167000882309F442C02E8C3F8CF10140805180B8
:1016800062807380A5019401C301B2010E94E1153B
:10169000181634F4F10180829182A282B3820DC0C7
:1016A000A7019601C301B2010E94821487FF05C001
:1016B000F101C082D182E282F3828EA09FA0A8A411
:1016C000B9A4CEA8DFA8E8ACF9ACA7019601C50182
:1016D000B4010E94E115181664F0CAA8DBA8ECA8B2
:1016E000FDA8A7019601C501B4010E94821487FFDD
:1016F00004C0CEA2DFA2E8A6F9A6DF91CF911F9188
:101700000F91FF90EF90DF90CF90BF90AF909F90A0
:101710008F907F906F905F904F903F902F900895A3
:101720002F923F924F925F926F927F928F929F92F1
:10173000AF92BF92CF92DF92EF92FF920F931F93DF
:10174000CF93DF93CDB7DEB760970FB6F894DEBFC7
:101750000FBECDBF8C01DC01DA96BC91B983B1110B
:1017600002C019823AC18FB7F89420916D0230916E
:101770006E0240916F02509170022B873C874D871B
:101780005E878FBFF80182A193A1A4A1B5A14B856B
:101790005C856D857E85481B590B6A0B7B0B86A586
:1017A00097A5A0A9B1A9481759076A077B07C8F2EE
:1017B000188B0F87248D358DD9018D919D910D90BA
:1017C000BC91A02D8A839B83AC83BD8300A0F1A133
:1017D000E02D2A813B814C815D8160817181828114
:1017E00093810E9415144B015C01F80122A533A5D9
:1017F00044A555A56A817B818C819D810E94151429
:101800006B017C01D80150962D913D914D915C91D9
:101810005397C501B4010E94E615F80126A137A12E
:1018200040A551A50E9416142B013C01D8019696A3
:101830006D937D938D939C939997DB96BC91BE831A
:10184000B11116C0F8012485358546855785C70135
:10185000B6010E94E6159B01AC01C301B2010E94D2
:101860001514D80196966D937D938D939C939997BB
:10187000EF85F88946A057A060A471A416A907A90E
:1018800030AC21AC212F302F432D522DC301B2019A
:101890000E94E11518165CF4812F902FA32DB22D14
:1018A000EF85F88986A397A3A0A7B1A71EC0AF852F
:1018B000B889D2962D913D914D915C91D5972F830A
:1018C000388749875A87C301B2010E94821487FF73
:1018D0000CC02F81388549855A85AF85B889969681
:1018E0002D933D934D935C939997BE81BB2369F0F3
:1018F000EF85F8892485358546855785C501B4016E
:101900000E94E6154B015C0103C0812C912C54010F
:10191000AF85B88954962D913D914D915C91579723
:10192000C701B6010E94E6159B01AC01EF85F8895D
:1019300066A177A180A591A50E9415149B01AC0119
:10194000C501B4010E9416146B017C01212F302FB8
:10195000432D522D0E94E1151816DCF0AF85B88991
:10196000D2961C91D297D3960C91D397D4963C9053
:10197000D497D5962C90212F302F432D522DB60180
:10198000C7010E94821487FD04C01C2D0D2D3E2C22
:101990002F2CAF85B8895E96ED91FC915F97812FD2
:1019A000902FA32DB22D80839183A283B3832A81AC
:1019B0003B814C815D81AF85B8899A962D933D938B
:1019C0004D935C939D972B853C854D855E859296C6
:1019D0002D933D934D935C939597898160960FB6B7
:1019E000F894DEBF0FBECDBFDF91CF911F910F9155
:1019F000FF90EF90DF90CF90BF90AF909F908F902F
:101A00007F906F905F904F903F902F900895CF926E
:101A1000DF92EF92FF92CF93DF93EC01603282E08E
:101A200078070CF03DC077FD06C0653B71052CF0D2
:101A300064EB70E002C060E070E0898128E830E08B
:101A40006901C81AD10887FDD394CC0CDD1CCC0CDD
:101A5000DD1C0D2C000CEE08FF088A8128E532E021
:101A6000281B310987FD3395220F331F220F331FA7
:101A7000C901330FAA0BBB0B9C01AD012C193D0909
:101A80004E095F09DB010E94871624EB30E040E03D
:101A900050E00E945D16C20ED31EE41EF51EB60174
:101AA0008881803380F5998148E850E0491B5109CD
:101AB00097FD5395440F551F440F551F6417750725
:101AC00084F09A8128E532E0291B310997FD33958E
:101AD000220F331F220F331FAB01261737070CF4D9
:101AE000A90142505109440F551F2FB7F89490E0B7
:101AF000FC01EE0FFF1F8E0F9F1FFC01E25FFC4FEA
:101B0000528341832FBFDF91CF91FF90EF90DF9001
:101B1000CF9008951F93CF93DF93EC01162F888108
:101B2000803308F04EC061E0812F0E94000588815B
:101B3000E82FF0E09F01220F331FE20FF31FE25F57
:101B4000FC4F1F739081907C192B108319821A828D
:101B50006CE00E9401149CE0899FB001112440E0D8
:101B600050E09A01260F371FF901EE0FFF1F2E0FCD
:101B70003F1FF901E25FFC4F908196FD16C04F5F59
:101B80005F4F4C30510569F7813001F510928000AC
:101B900082E0809381001092850010928400B19AB7
:101BA00080916F00826080936F00E881F0E0CF0148
:101BB000880F991FE80FF91FE25FFC4F8081806456
:101BC00080838881DF91CF911F910895823061F4E5
:101BD00010929000809391001092950010929400C2
:101BE00088BB80937100E1CF833069F41092A0002C
:101BF00082E08093A1001092A5001092A40089BBFE
:101C000080937200D2CF8111D0CF1092200182E058
:101C10008093210110922501109224018ABB8093A8
:101C20007300C3CF1F920F920FB60F9211240BB601
:101C30000F922F933F934F935F936F937F938F9365
:101C40009F93AF93BF93EF93FF9348E251E064E219
:101C500071E080E090E00E943904FF91EF91BF9124
:101C6000AF919F918F917F916F915F914F913F9134
:101C70002F910F900BBE0F900FBE0F901F901895D5
:101C80001F920F920FB60F9211240BB60F922F9343
:101C90003F934F935F936F937F938F939F93AF93F4
:101CA000BF93EF93FF9348EA50E064EA70E083E06B
:101CB00090E00E943904FF91EF91BF91AF919F9105
:101CC0008F917F916F915F914F913F912F910F90E5
:101CD0000BBE0F900FBE0F901F9018951F920F9282
:101CE0000FB60F9211240BB60F922F933F934F9381
:101CF0005F936F937F938F939F93AF93BF93EF9374
:101D0000FF9348E950E064E970E082E090E00E94CF
:101D10003904FF91EF91BF91AF919F918F917F9186
:101D20006F915F914F913F912F910F900BBE0F904C
:101D30000FBE0F901F9018951F920F920FB60F9223
:101D400011240BB60F922F933F934F935F936F9392
:101D50007F938F939F93AF93BF93EF93FF9348E845
:101D600050E064E870E081E090E00E943904FF9167
:101D7000EF91BF91AF919F918F917F916F915F9103
:101D80004F913F912F910F900BBE0F900FBE0F9070
:101D90001F901895789484B5826084BD84B5816065
:101DA00084BD85B5826085BD85B5816085BD809126
:101DB0006E00816080936E0010928100809181009E
:101DC0008260809381008091810081608093810096
:101DD000809180008160809380008091B100846058
:101DE0008093B1008091B00081608093B0008091B9
:101DF0009100826080939100809191008160809336
:101E00009100809190008160809390008091A1006A
:101E100082608093A1008091A10081608093A100E5
:101E20008091A00081608093A00080912101826058
:101E30008093210180912101816080932101809113
:101E4000200181608093200180917A0084608093DA
:101E50007A0080917A00826080937A0080917A0083
:101E6000816080937A0080917A00806880937A0004
:101E70001092C10081E0809361026AE070E087EB1C
:101E800093E00E948A0D6BE070E08AEB93E00E9481
:101E90008A0DE0918102F091820282E08083E091DC
:101EA0007D02F0917E021082E0917F02F09180022B
:101EB0008FEC808310928902E0918502F091860276
:101EC00086E08083E0918302F091840280818061CA
:101ED0008083E0918302F091840280818860808316
:101EE000E0918302F0918402808180688083E09198
:101EF0008302F091840280818F7D808386E292E06C
:101F00000E94D40881E392E00E94D40881E194E029
:101F10000E94C50A89EC93E00E94C50A109205044C
:101F20001092060410920704109208041092BD0348
:101F30001092BE031092BF031092C00300E010E0A5
:101F4000980143E353E363E370E481E194E00E948A
:101F50000B0A00E010E0980143E353E363E370E40D
:101F600089EC93E00E940B0A00E010E020EF31E4DE
:101F700040E050E060EF71EC81E194E00E94100BD2
:101F800000E010E020EF31E440E050E060EF71EC61
:101F900089EC93E00E94100B10926302109262028F
:101FA00077247394CAE5D0E0809162029091630235
:101FB000009721F0019709F497C154C38091610201
:101FC000882309F466C022E032E743E950E46091D7
:101FD00005047091060480910704909108040E9402
:101FE000151460930504709306048093070490937E
:101FF000080422E032E743E950E46091BD037091A8
:10200000BE038091BF039091C0030E941614609399
:10201000BD037093BE038093BF039093C00309E296
:102020001CE52FE83DE34DEC5CEC6CE970E481E1EC
:1020300094E00E940B0A09E21CE52FE83DE34DEC19
:102040005CEC6CE970E489EC93E00E940B0A20914F
:10205000C5033091C6034091C7035091C8036091F6
:102060000D0470910E0480910F04909110040E9451
:10207000161420E030E040E05FE30E94E615609334
:10208000560270935702809358029093590210920F
:1020900061028BEA93E00E9423040E9431152FE134
:1020A00032E449E05EE30E94E61560930D0470930C
:1020B0000E0480930F04909310048FE993E00E9424
:1020C00023040E9431152FE132E449E05EE30E94CF
:1020D000E6156093C5037093C6038093C70390937E
:1020E000C80320910D0430910E0440910F045091CB
:1020F00010040E94161420E030E040E05FE30E94EC
:10210000E6152091560230915702409158025091A5
:1021100059020E94151420E030E040EC50E40E9487
:10212000E6150E94F9146B017C0170935C026093C8
:102130005B028BEA93E00E9423040E94311526E1A2
:102140003AEE4EE851E40E94871460930D047093B8
:102150000E0480930F04909310048FE993E00E9483
:1021600023040E94311526E13AEE4EE851E40E9424
:1021700087146093C5037093C6038093C70390933D
:10218000C80381E194E00E94900B89EC93E00E94E7
:10219000900BB601DD0C880B990B0E9431156B0179
:1021A0007C019B01AC016091090470910A0480914B
:1021B0000B0490910C040E94151420E030E040ECD8
:1021C0005FE30E9487140E94F9149E01261B370BBF
:1021D000B9018AEB93E00E94070DA7019601609177
:1021E000C1037091C2038091C3039091C4030E9404
:1021F000151420E030E040EC5FE30E9487140E9459
:10220000F9149E01261B370BB90187EB93E00E945E
:10221000070D8AE392E00E94D4086091C503709193
:10222000C6038091C7039091C80342E00E9427092A
:102230006091BD037091BE038091BF039091C00374
:1022400042E00E94270984E392E00E94D408609152
:102250000D0470910E0480910F049091100442E0DF
:102260000E9427096091050470910604809107047B
:102270009091080442E00E94270981E392E00E94C5
:10228000D40880915A02882309F46DC12091BD03BE
:102290003091BE034091BF035091C0036091C503CC
:1022A0007091C6038091C7039091C8030E949B0858
:1022B000882309F4D7C110925A0200E010E0980177
:1022C00043E353E363E370E481E194E00E940B0A8B
:1022D00000E010E0980143E353E363E370E489EC2A
:1022E00093E00E940B0ABEC180916102882309F429
:1022F00048C020E030E04FE254E460910504709162
:10230000060480910704909108040E9416146093BB
:10231000050470930604809307049093080420E05A
:1023200030E04FE254E46091BD037091BE038091B0
:10233000BF039091C0030E9416146093BD03709375
:10234000BE038093BF039093C0032091C5033091D7
:10235000C6034091C7035091C80360910D0470916A
:102360000E0480910F04909110040E941514609344
:102370005D0270935E0280935F0290936002109200
:1023800061028BEA93E00E9423040E9431152FE141
:1023900032E449E05EE30E94E61560930D04709319
:1023A0000E0480930F04909310048FE993E00E9431
:1023B00023040E9431152FE132E449E05EE30E94DC
:1023C000E6159B01AC016093C5037093C60380932F
:1023D000C7039093C80360910D0470910E0480911F
:1023E0000F04909110040E94151420915D02309109
:1023F0005E0240915F02509160020E94151420E03D
:1024000030E040E250E40E94E6150E94F9146B01AE
:102410007C0170935C0260935B028BEA93E00E9404
:1024200023040E94311526E13AEE4EE851E40E9461
:10243000871460930D0470930E0480930F0490939F
:1024400010048FE993E00E9423040E94311526E1D5
:102450003AEE4EE851E40E9487146093C5037093EE
:10246000C6038093C7039093C80381E194E00E9460
:10247000900B89EC93E00E94900B2091C503309162
:10248000C6034091C7035091C8036091BD0370918A
:10249000BE038091BF039091C0030E9415144B01AD
:1024A0005C0120E030E0A9010E94E115181624F03B
:1024B000B7FAB094B7F8B094A501940160E070E069
:1024C0008FE294E40E94151420E030E048E452E4E6
:1024D0000E94E1150D2C000CEE08FF0818160CF4F4
:1024E0005AC0C701B6010E9431156B017C0120E082
:1024F00030E040E05FE36091090470910A0480914C
:102500000B0490910C040E94E615A70196010E940D
:1025100015140E94F9149E01261B370BB9018AEB92
:1025200093E00E94070D20E030E040E05FE360911F
:10253000C1037091C2038091C3039091C4030E94B0
:10254000E615A70196010E9416140E94F9149E0137
:10255000261B370BB90187EB93E00E94070D809192
:102560005A0281116AC020910504309106044091FD
:1025700007045091080460910D0470910E0480913D
:102580000F04909110040E949B08882309F46AC0EC
:1025900070925A0267C0C701B6010E9431156B01E3
:1025A0007C0120E030E040EC5FE360910904709131
:1025B0000A0480910B0490910C040E948714A701D7
:1025C00096010E9415140E94F9149E01261B370BD8
:1025D000B9018AEB93E00E94070D20E030E040EC67
:1025E0005FE36091C1037091C2038091C303909136
:1025F000C4030E948714A70196010E9416140E942A
:10260000F9149E01261B370BB90187EB93E00E945A
:10261000070D87E392E00E94D4086091C503709192
:10262000C6038091C7039091C80342E00E94270926
:1026300081E392E00E94D40892CF2091BD033091B3
:10264000BE034091BF035091C0036091C5037091D8
:10265000C6038091C7039091C8030E949B08811113
:1026600010925A020E9406039FCCAF92BF92CF9263
:10267000DF92EF92FF920F931F93CF931092740209
:102680001092730288EE93E0A0E0B0E080937502B0
:1026900090937602A0937702B093780288E192E05B
:1026A000909372028093710285EC90E090937E0289
:1026B00080937D0284EC90E09093800280937F026F
:1026C00080EC90E0909382028093810281EC90E014
:1026D000909384028093830282EC90E09093860230
:1026E0008093850286EC90E0909388028093870225
:1026F00010928A0210928B0210928C0210928D021C
:102700001F921F921F92C1E0CF931F921F921F92A0
:102710001F92A12CB12C650113E3E12EFE2C03E3E3
:1027200010E425E034E049E054E06DE074E081E13C
:1027300094E00E949D071F921F921F92CF931F92B9
:102740001F921F921F922DEB33E041EC53E065EC9A
:1027500073E089EC93E00E949D0780919E032DB762
:102760003EB7205F3F4F0FB6F8943EBF0FBE2DBF60
:102770008033A0F491E0980F90939E038093BA0366
:1027800090E0FC01EE0FFF1F8E0F9F1FFC01E25F28
:10279000FC4F88EB9BE09283818303C08FEF809393
:1027A000BA0380919E038033A0F491E0980F909338
:1027B0009E038093B70390E0FC01EE0FFF1F8E0F86
:1027C0009F1FFC01E25FFC4F88EB9BE092838183BB
:1027D00003C08FEF8093B70343E062E08BEA93E09E
:1027E0000E943E0743E162E18FE993E0CF911F91A0
:1027F0000F91FF90EF90DF90CF90BF90AF900C942F
:102800003E07991B79E004C0991F961708F0961BA4
:10281000881F7A95C9F780950895EE0FFF1F881FCE
:102820008BBF0790F691E02D19945058BB27AA272B
:102830000E942D140C94A7150E94991538F00E943F
:10284000A01520F039F49F3F19F426F40C94961546
:102850000EF4E095E7FB0C949015E92F0E94B81553
:1028600058F3BA17620773078407950720F079F4C5
:10287000A6F50C94DA150EF4E0950B2EBA2FA02DC8
:102880000B01B90190010C01CA01A0011124FF271D
:10289000591B99F0593F50F4503E68F11A16F04018
:1028A000A22F232F342F4427585FF3CF4695379517
:1028B0002795A795F0405395C9F77EF41F16BA0BDC
:1028C000620B730B840BBAF09150A1F0FF0FBB1F8A
:1028D000661F771F881FC2F70EC0BA0F621F731FD3
:1028E000841F48F4879577956795B795F7959E3F30
:1028F00008F0B0CF9395880F08F09927EE0F9795C1
:10290000879508950E946C1508F481E008950E944F
:102910009B140C94A7150E94A01558F00E949915BD
:1029200040F029F45F3F29F00C94901551110C945C
:10293000DB150C9496150E94B81568F39923B1F332
:10294000552391F3951B550BBB27AA2762177307D5
:10295000840738F09F5F5F4F220F331F441FAA1F69
:10296000A9F335D00E2E3AF0E0E832D09150504025
:10297000E695001CCAF72BD0FE2F29D0660F771FD3
:10298000881FBB1F261737074807AB07B0E809F0B9
:10299000BB0B802DBF01FF2793585F4F3AF09E3F3E
:1029A000510578F00C9490150C94DB155F3FE4F31F
:1029B000983ED4F3869577956795B795F7959F5F81
:1029C000C9F7880F911D9695879597F90895E1E0CD
:1029D000660F771F881FBB1F621773078407BA072C
:1029E00020F0621B730B840BBA0BEE1F88F7E09587
:1029F00008950E9400156894B1110C94DB15089598
:102A00000E94C01588F09F5798F0B92F9927B751A9
:102A1000B0F0E1F0660F771F881F991F1AF0BA9582
:102A2000C9F714C0B13091F00E94DA15B1E00895F1
:102A30000C94DA15672F782F8827B85F39F0B93FE3
:102A4000CCF3869577956795B395D9F73EF4909535
:102A50008095709561957F4F8F4F9F4F0895E894B3
:102A600009C097FB3EF490958095709561957F4FD6
:102A70008F4F9F4F9923A9F0F92F96E9BB27939584
:102A8000F695879577956795B795F111F8CFFAF494
:102A9000BB0F11F460FF1BC06F5F7F4F8F4F9F4FC5
:102AA00016C0882311F096E911C0772321F09EE823
:102AB000872F762F05C0662371F096E8862F70E089
:102AC00060E02AF09A95660F771F881FDAF7880F63
:102AD0009695879597F90895990F0008550FAA0BB9
:102AE000E0E8FEEF16161706E807F907C0F0121621
:102AF0001306E407F50798F0621B730B840B950B24
:102B000039F40A2661F0232B242B252B21F4089578
:102B10000A2609F4A140A6958FEF811D811D089515
:102B200097F99F6780E870E060E008959FEF80EC80
:102B3000089500240A941616170618060906089523
:102B400000240A9412161306140605060895092E89
:102B50000394000C11F4882352F0BB0F40F4BF2BF8
:102B600011F460FF04C06F5F7F4F8F4F9F4F089538
:102B700057FD9058440F551F59F05F3F71F047952E
:102B8000880F97FB991F61F09F3F79F08795089513
:102B9000121613061406551FF2CF4695F1DF08C032
:102BA000161617061806991FF1CF8695710561054F
:102BB00008940895E894BB2766277727CB0197F9F7
:102BC00008950E946C1508F48FEF08950E94F9157E
:102BD0000C94A7150E94991538F00E94A01520F0BA
:102BE000952311F00C9490150C94961511240C94C7
:102BF000DB150E94B81570F3959FC1F3950F50E057
:102C0000551F629FF001729FBB27F00DB11D639F9E
:102C1000AA27F00DB11DAA1F649F6627B00DA11D44
:102C2000661F829F2227B00DA11D621F739FB00DEA
:102C3000A11D621F839FA00D611D221F749F33275A
:102C4000A00D611D231F849F600D211D822F762FF3
:102C50006A2F11249F5750409AF0F1F088234AF0D0
:102C6000EE0FFF1FBB1F661F771F881F915050403C
:102C7000A9F79E3F510580F00C9490150C94DB153C
:102C80005F3FE4F3983ED4F3869577956795B795C3
:102C9000F795E7959F5FC1F7FE2B880F911D9695DD
:102CA000879597F908950E946C15880B990B0895E4
:102CB00081E090E0F8940C94C016052E97FB1EF46A
:102CC00000940E94741657FD07D00E948F1607FCCF
:102CD00003D04EF40C947416509540953095219580
:102CE0003F4F4F4F5F4F0895909580957095619538
:102CF0007F4F8F4F9F4F08950E94B116A59F900D53
:102D0000B49F900DA49F800D911D11240895B7FFCD
:102D10000C947C160E947C16821B930B0895A1E2F2
:102D20001A2EAA1BBB1BFD010DC0AA1FBB1FEE1F45
:102D3000FF1FA217B307E407F50720F0A21BB30B90
:102D4000E40BF50B661F771F881F991F1A9469F70C
:102D500060957095809590959B01AC01BD01CF0168
:102D60000895A29FB001B39FC001A39F700D811D64
:102D70001124911DB29F700D811D1124911D089584
:042D8000F894FFCFF5
:102D84000502050205020502050205020502050207
:102D940001000000000000009D0206023502E4026A
:102DA400660244025802496E6974616C697A65640A
:102DB400000D0A004C3A00202020523A006E616E49
:0A2DC40000696E66006F766600007D
:00000001FF
